:020000040800F2
:100000000050002055100008210F0008270F00089D
:100010002D0F0008330F0008390F00080000000002
:100020000000000000000000000000003F0F00087A
:100030004B0F000800000000570F0008630F000876
:100040009D1000089D1000089D1000089D100008DC
:100050009D1000089D1000089D1000089D100008CC
:100060009D1000089D1000089D1000089D100008BC
:100070009D1000089D1000089D1000089D100008AC
:100080009D1000089D1000089D1000089D1000089C
:100090009D1000089D1000089D100008710F0008B9
:1000A0009D1000089D1000089D1000089D1000087C
:1000B0009D100008890F00089D1000089D10000881
:1000C0009D1000089D1000089D1000089D1000085C
:1000D0009D0F0008B10F00089D1000089D1000083A
:1000E000CD0F00089D1000089D10000800000000C2
:1000F0000000000000000000000000000000000000
:0C01000000000000000000005FF808F1A3
:10010C0010B5054C237833B9044B13B10448AFF345
:10011C0000800123237010BD780000200000000037
:10012C00F86B000808B5034B1BB103490348AFF348
:10013C00008008BD000000007C000020F86B000867
:10014C00034613F8012B002AFBD1181A013870470B
:10015C0080B500AF372001F081FB03461A461E4BD9
:10016C009A70382001F07AFB03461A461A4B5A70E3
:10017C00392001F073FB03461A46174B1A703A20CC
:10018C0001F06CFB03461A46134B5A713B2001F0ED
:10019C0065FB03461A46104B1A713C2001F05EFBBE
:1001AC0003461A460C4BDA703D2001F057FB034610
:1001BC001A46094B1A723E2001F050FB03461A46B0
:1001CC00054BDA713F2001F049FB03461A46024BFE
:1001DC009A71014B184680BD9400002080B582B006
:1001EC0000AF786039607B68002B01D1012346E0B9
:1001FC007B6893F83D30DBB2002B03D17B68002287
:10020C0083F83C207B68022283F83D207B681A68C7
:10021C007B6804331946104604F06EF97B681B6842
:10022C001A687B681B6822F008021A607B681B68DE
:10023C0019687B681B683A680A431A607B6801225C
:10024C0083F846207B68012283F83E207B680122DC
:10025C0083F83F207B68012283F841207B680122D0
:10026C0083F842207B68012283F843207B680122BB
:10027C0083F845207B68012283F83D200023184633
:10028C000837BD4680BD000080B584B000AF7860F3
:10029C0039607B6893F83E30FB737B6893F83F3092
:1002AC00BB737B6893F841307B737B6893F8423067
:1002BC003B737B6893F84330FB727B6893F8453053
:1002CC00BB72FB7B012B08D1BB7B012B05D13B7B8C
:1002DC00012B02D1FB7A012B01D001233AE07B6880
:1002EC00022283F83E207B68022283F83F207B6841
:1002FC00022283F841207B68022283F842207B682B
:10030C00022283F843207B68022283F845207B6815
:10031C001B6801220021184604F06EFB7B681B68E9
:10032C0001220421184604F067FB7B681B6801223C
:10033C000C21184604F060FB7B681B68074A93424B
:10034C0007D17B681B685A6C7B681B6842F40042BF
:10035C005A64002318461037BD4680BD002C01405E
:10036C0080B58CB000AF002387F82F3001F028FB4C
:10037C0000F06AF900F018FB00F0E2F900F0EAFA7C
:10038C0000F0A8F900F098FA00F014FA05F03CFE21
:10039C0001229849984804F0A2FC984B1B78002B3A
:1003AC0004D0964B00221A7005F0F2FB944B1B788C
:1003BC00DBB2302B19D100224FF40041914801F0EF
:1003CC00CCFF00F02BFF904B00221A808F4A07F1D4
:1003DC001C0392E8030018600433197007F11C0128
:1003EC0064230422844804F0E8FB854B1B78DBB2C1
:1003FC00312B1AD1002387F82F3000224FF4004103
:10040C00804801F0AAFF824B01221A70814A07F141
:10041C00140392E8030018600433197007F11401F7
:10042C0064230422744804F0C8FB754B1B78DBB2C0
:10043C00322B1AD100224FF40041724801F08DFF8B
:10044C00002000F0B7FF724B00221A70724A07F1BD
:10045C000C0392E8030018600433197007F10C01C7
:10046C0064230422644804F0A8FB654B1B78DBB2C0
:10047C00332B2FD100224FF40041624801F06DFF65
:10048C005F4B9B78DBB21B027B625D4B5B78DBB214
:10049C001A467B6A13437B62604B1B880022796A85
:1004AC005F4801F02DF95D4B1A8864235C49524872
:1004BC0004F083FB5B4A3B1D92E803001860043395
:1004CC00198002330A0C1A70391D642306224A481B
:1004DC0004F073FB544B1B78DBB2012B62D1524BF3
:1004EC0000221A70FFF734FE494B1B78DBB2002B4D
:1004FC0052D00023BB620DE04C4B1B781A46BB6AF2
:10050C0013444B49BA6A0A4411784A4AD154BB6A1B
:10051C000133BB62BB6A082BEEDD444B1B780933FD
:10052C00DAB2424B1A70414B1B78FB2B3AD93F4B3A
:10053C0000221A704FF40041324801F026FF97F860
:10054C002F30012B08D14FF496734FF48072394938
:10055C00294804F032FB09E02B4B1B889BB219464F
:10056C002E4B1B880022334800F07CFE264B1B8848
:10057C009BB24FF6FF72934206D12F4B01221A7099
:10058C00234B00221A700DE01F4B1B889BB20133CA
:10059C009AB21D4B1A8005E001224FF40041194814
:1005AC0001F0DBFE254B1B78002B3FF4F6AE244B01
:1005BC001B7883F00103DBB2002B3FF4EEAE1F4B34
:1005CC0000221A7005F0FCF80346184605F012F9E3
:1005DC00062005F0FFF80C4B00221A8000224FF485
:1005EC000041084801F0B9FE00F018FE154B01223D
:1005FC001A70D2E630030020E0010020980400209D
:10060C00340300200008014026020020106C000872
:10061C0024020020186C0008206C00084404002000
:10062C002C020020286C0008280200203E03002029
:10063C0094000020400300202C0300202D030020F8
:10064C0099040020DA0A002080B590B000AF07F1C1
:10065C00180328220021184605F054FE3B1D0022E9
:10066C001A605A609A60DA601A610123BB614FF418
:10067C008033FB6100233B620123BB6202237B635B
:10068C004FF48033BB634FF4E013FB6307F11803A3
:10069C00184601F0ABFE0346002B01D000F038FAEF
:1006AC000F237B600223BB600023FB604FF480634D
:1006BC003B6100237B613B1D0221184602F018F9B7
:1006CC000346002B01D000F023FA00BF4037BD4693
:1006DC0080BD000080B500AF174B184A1A60164B4E
:1006EC004FF482725A60144B00229A60124B002213
:1006FC00DA60114B00221A610F4B00225A610E4B2B
:10070C004FF400729A610C4B2022DA610A4B0022E2
:10071C001A62094B00225A62074B00229A62064B5E
:10072C000A22DA62044802F07BFA0346002B01D05D
:10073C0000F0EEF900BF80BDA000002000300140A9
:10074C0080B500AF194B1A4A1A60184B00225A6038
:10075C00164B00229A60154B0022DA60134B0022D4
:10076C001A61124B00225A61104B4FF400729A61BD
:10077C000E4B00221A620D4B00225A620B4B0022C8
:10078C009A620A4B0A22DA62084802F049FA0346D6
:10079C00002B01D000F0BCF9044B1B685A68034BCA
:1007AC001B6842F020025A6000BF80BDF800002098
:1007BC000038004080B58EB000AF07F1280300224E
:1007CC001A605A609A60DA6007F1200300221A60FE
:1007DC005A603B1D00221A605A609A60DA601A61F6
:1007EC005A619A61334B4FF080421A60314B482268
:1007FC005A60304B00229A602E4B40F2F512DA60B0
:10080C002C4B00221A612B4B00229A61294803F0D1
:10081C0067FA0346002B01D000F07AF94FF48053AD
:10082C00BB6207F128031946224803F073FD034607
:10083C00002B01D000F06CF91E4803F0F3FA0346CC
:10084C00002B01D000F064F908211A4803F042FB98
:10085C000346002B01D000F05BF900233B62002320
:10086C007B6207F120031946124804F0E9F80346AD
:10087C00002B01D000F04CF960237B600123BB609E
:10088C000223FB6000237B613B1D0C2219460948A7
:10089C0003F082FC0346002B01D000F039F908214B
:1008AC000448FFF79BFC034800F09AFA00BF383766
:1008BC00BD4680BD5001002080B586B000AF07F169
:1008CC00080300221A605A609A60DA603B460022E4
:1008DC001A605A601D4B1E4A1A601C4B4BF6803234
:1008EC005A601A4B00229A60184B0522DA60174B9B
:1008FC0000221A61154B00229A61144803F0F0F99A
:10090C000346002B01D000F003F94FF48053BB6079
:10091C0007F1080319460D4803F0FCFC0346002BB5
:10092C0001D000F0F5F830233B6000237B603B46A0
:10093C001946064804F084F80346002B01D000F059
:10094C00E7F800BF1837BD4680BD00BF98010020F6
:10095C000004004080B500AF114B124A1A60104BD6
:10096C004FF496425A600E4B00229A600C4B0022B8
:10097C00DA600B4B00221A61094B0C225A61084BAE
:10098C0000229A61064B0022DA61054804F0C8F88F
:10099C000346002B01D000F0BBF800BF80BD00BFA8
:1009AC00E00100200038014080B588B000AF07F1AD
:1009BC00100300221A605A609A60DA60424B9B69FD
:1009CC00414A43F0200393613F4B9B6903F02003A2
:1009DC00FB60FB683C4B9B693B4A43F0040393610F
:1009EC00394B9B6903F00403BB60BB68364B9B69B6
:1009FC00354A43F008039361334B9B6903F00803BA
:100A0C007B607B68002248F21801304801F0A5FC9D
:100A1C00002201212E4801F0A0FC48F218033B6192
:100A2C0001237B610023BB610223FB6107F11003EF
:100A3C001946264801F03AFA01233B6101237B61F8
:100A4C000023BB610223FB6107F110031946204808
:100A5C0001F02CFA4FF480533B611E4B7B61002359
:100A6C00BB6107F110031946194801F01FFA402326
:100A7C003B61184B7B610123BB6107F110031946E5
:100A8C00134801F013FA80233B6100237B610023A0
:100A9C00BB6107F1100319460D4801F007FA00225B
:100AAC000221172001F00DF9172001F026F9002280
:100ABC000121282001F005F9282001F01EF900BFC2
:100ACC002037BD4680BD00BF001002400008014029
:100ADC00000C01400000211080B582B000AF78609E
:100AEC007B681B68084A93420AD1084802F01CF93B
:100AFC00012000F0C7FF054802F092F804F0C6FD93
:100B0C0000BF0837BD4680BD00380040F80000200B
:100B1C0080B400AF72B600BFFEE7000080B485B0B1
:100B2C0000AF154B9B69144A43F001039361124BC0
:100B3C009B6903F00103BB60BB680F4BDB690E4A7A
:100B4C0043F08053D3610C4BDB6903F080537B6023
:100B5C007B680A4B5B68FB60FB6823F0E063FB601F
:100B6C00FB6843F00073FB60044AFB68536000BFF2
:100B7C001437BD4680BC7047001002400000014095
:100B8C0080B58AB000AF786007F1180300221A60B4
:100B9C005A609A60DA607B681B683B4A934230D19A
:100BAC003A4B9B69394A43F480539361374B9B69A9
:100BBC0003F480537B617B69344B9B69334A43F06C
:100BCC0004039361314B9B6903F004033B613B6964
:100BDC00A023BB610223FB6103237B6207F1180393
:100BEC0019462B4801F062F94023BB610023FB61DD
:100BFC0000233B6207F118031946254801F056F90A
:100C0C003EE07B681B68234A934239D11F4BDB695A
:100C1C001E4A43F48043D3611C4BDB6903F48043CD
:100C2C00FB60FB68194B9B69184A43F008039361FE
:100C3C00164B9B6903F00803BB60BB684FF4204361
:100C4C00BB610023FB6100233B6207F118031946CB
:100C5C00114801F02BF94FF48043BB610223FB6177
:100C6C0003237B6207F1180319460B4801F01EF9A8
:100C7C0000220121242001F024F8242001F03DF869
:100C8C0000BF2837BD4680BD003001400010024037
:100C9C000008014000380040000C014080B582B0D3
:100CAC0000AF78607B681B68124A93420AD1124BE2
:100CBC009B69114A23F480539361E0210F4801F0A2
:100CCC0079FA12E07B681B680D4A93420DD10A4BEE
:100CDC00DB69094A23F48043D3614FF4604109482E
:100CEC0001F068FA242001F016F800BF0837BD4661
:100CFC0080BD00BF003001400010024000080140E0
:100D0C0000380040000C014080B58AB000AF78601C
:100D1C0007F1140300221A605A609A60DA607B684B
:100D2C001B68B3F1804F36D1294BDB69284A43F05D
:100D3C000103D361264BDB6903F001033B613B6983
:100D4C00234B9B69224A43F004039361204B9B691C
:100D5C0003F00403FB60FB6801237B610223BB618E
:100D6C0002233B6207F1140319461A4801F09EF85E
:100D7C00194B5B687B627B6A23F440737B627B6AF2
:100D8C0043F0E0637B627B6A43F400737B62124A3C
:100D9C007B6A536018E07B681B68104A934213D13E
:100DAC000B4BDB690A4A43F00203D361084BDB6946
:100DBC0003F00203BB60BB68002202211D2000F07F
:100DCC0080FF1D2000F099FF00BF2837BD4680BD75
:100DDC0000100240000801400000014000040040E7
:100DEC0080B588B000AF786007F10C0300221A6060
:100DFC005A609A60DA607B681B68B3F1804F2AD125
:100E0C00174B9B69164A43F008039361144B9B697B
:100E1C0003F00803BB60BB684FF40063FB60022364
:100E2C003B610223BB6107F10C0319460D4801F02D
:100E3C003DF80D4B5B68FB61FB6923F44073FB6170
:100E4C00FB6943F0E063FB61FB6943F40073FB61F6
:100E5C00054AFB69536000BF2037BD4680BD00BF0B
:100E6C0000100240000C01400000014080B588B029
:100E7C0000AF786007F1100300221A605A609A6084
:100E8C00DA607B681B68204A934239D11F4B9B69FF
:100E9C001E4A43F4804393611C4B9B6903F48043CB
:100EAC00FB60FB68194B9B69184A43F00403936180
:100EBC00164B9B6903F00403BB60BB684FF40073D3
:100ECC003B6102237B610323FB6107F1100319468D
:100EDC000F4800F0EBFF4FF480633B6100237B6114
:100EEC000023BB6107F110031946094800F0DEFF2F
:100EFC0000220221252000F0E4FE252000F0FDFE5A
:100F0C0000BF2037BD4680BD0038014000100240B4
:100F1C000008014080B400AFFEE780B400AFFEE7EC
:100F2C0080B400AFFEE780B400AFFEE780B400AF42
:100F3C00FEE780B400AF00BFBD4680BC704780B4F4
:100F4C0000AF00BFBD4680BC704780B400AF00BF8F
:100F5C00BD4680BC704780B500AF00F077FD00BF88
:100F6C0080BD000080B500AF034B01221A704020F9
:100F7C0001F024FA00BF80BD2802002080B500AF2C
:100F8C00024803F000F800BF80BD00BF98010020AC
:100F9C0080B500AF024802F073FB00BF80BD00BFFC
:100FAC00F800002080B500AF034B01221A700348F3
:100FBC0003F0C6FE00BF80BD32030020E00100201C
:100FCC0080B500AF4FF4805001F0F8F900BF80BD40
:100FDC0080B586B000AF7860144A154BD31A7B618C
:100FEC007B693B61134B1B68002B02D1114B124ADE
:100FFC001A60104B1A687B6813443A699A4207D2FC
:10100C0005F048F903460C221A604FF0FF3309E053
:10101C00084B1B68FB60074B1A687B681344054A36
:10102C001360FB6818461837BD4680BD0050002081
:10103C000004000040040020F00A002080B400AF3F
:10104C0000BFBD4680BC70470C480D490D4A0023BB
:10105C0002E0D458C4500433C4188C42F9D30A4A61
:10106C000A4C002301E013600432A242FBD3FFF7C9
:10107C00E5FF05F015F9FFF773F970470000002044
:10108C0078000020D073000878000020EC0A0020C3
:10109C00FEE780B483B000AF00237B6003E000BFA9
:1010AC007B6801337B607B68312BF8D900BF00BFB4
:1010BC000C37BD4680BC704780B582B000AF7860FD
:1010CC000B467B807A8841F288337968034801F0BB
:1010DC0053FE00BF0837BD4680BD00BFA0000020F6
:1010EC0080B582B000AF78600B467B807A8841F285
:1010FC0088337968034801F07BFF00BF0837BD4691
:10110C0080BD00BFA000002080B500AF00221021E0
:10111C00094801F022F9094B66221A70074B9922F3
:10112C005A7002210548FFF7C7FF0122102102481F
:10113C0001F013F900BF80BD0008014088040020B5
:10114C0080B500AF00221021084801F006F9084BC9
:10115C0006221A7001210648FFF7AEFF012210216A
:10116C00024801F0FAF800BF80BD00BF0008014042
:10117C008804002080B500AF00221021084801F03F
:10118C00ECF8084B04221A7001210648FFF794FF73
:10119C0001221021024801F0E0F800BF80BD00BF21
:1011AC00000801408804002080B483B000AF0346DF
:1011BC00FB7100BF0C37BD4680BC704780B500AFDB
:1011CC00FFF767FF00221021114801F0C6F8114B00
:1011DC0005221A7001210F48FFF76EFF01210D48FF
:1011EC00FFF77EFF0B4B1A780B4B83F82020FFF791
:1011FC0050FF094B93F8203003F00103002BEDD185
:10120C0001221021024801F0A8F800BF80BD00BFE8
:10121C0000080140880400204404002080B500AF81
:10122C00FFF7CCFFFFF78CFF002210210B4801F0D9
:10123C0094F80B4BC7221A7001210948FFF73CFFA9
:10124C0001221021054801F088F8FFF7B7FFFFF7DE
:10125C0091FF0F20FFF7A8FF00BF80BD00080140E1
:10126C008804002080B584B000AFF860B9607A6063
:10127C003B60394B1B881A463B68934202D9364B6C
:10128C001B883B607A683B681344334A128893424C
:10129C0005D9314B1B881A467B68D31A3B602E4B01
:1012AC001B881A46BB6802FB03F37A681344BB60C5
:1012BC00FFF784FF0020FFF777FFFFF741FF0022C5
:1012CC001021264801F049F8254B02221A70224BB6
:1012DC00DB7F002B17D0BB681B0EDAB2204B5A7089
:1012EC00BB681B0CDAB21E4B9A70BB681B0ADAB2D5
:1012FC001B4BDA70BB68DAB2194B1A71052118480E
:10130C00FFF7DAFE11E0BB681B0CDAB2144B5A7013
:10131C00BB681B0ADAB2124B9A70BB68DAB2104B7C
:10132C00DA7004210E48FFF7C7FE3B689BB21946E2
:10133C00F868FFF7C1FE01221021084801F00DF8F2
:10134C00FFF73CFFFFF716FF0F20FFF72DFF00BF45
:10135C001037BD4680BD00BF44040020000801408A
:10136C008804002080B582B000AF104B9F221A7009
:10137C00002210210E4800F0F0FF01210B48FFF76E
:10138C009BFE3B1D03211846FFF7AAFE01221021EC
:10139C00074800F0E2FF3B791A047B791B021343E8
:1013AC00BA79134318460837BD4680BD880400201F
:1013BC000008014080B584B000AF0346FB71FFF715
:1013CC00D1FFF860642000F05DFBFFF79DFE642008
:1013DC0000F058FBFB79002B16D04FF480530222FF
:1013EC005049514803F0E9FBFA685049504804F061
:1013FC0091FF4F48FEF7A4FE03469AB24FF4805378
:10140C004B49494803F0D9FBFB689BB2FB60494B45
:10141C000022DA77FB68A3F58043113B092B70D8C7
:10142C0001A252F823F000BFFF140008EF140008CB
:10143C00DF140008CF140008BF140008AF14000814
:10144C009F1400088D140008751400085D14000822
:10145C00384B0122DA77374B4FF480625A613649A8
:10146C00334804F057FF7DE0324B0122DA77314BE1
:10147C004FF400725A6131492D4804F04BFF71E072
:10148C002C4B4FF480725A612D49294804F042FFCD
:10149C0068E0284B80225A612A49254804F03AFF1B
:1014AC0060E0244B40225A612749214804F032FF66
:1014BC0058E0204B20225A6124491D4804F02AFF91
:1014CC0050E01C4B10225A612149194804F022FFAC
:1014DC0048E0184B08225A611E49154804F01AFFBF
:1014EC0040E0144B04225A611B49114804F012FFCE
:1014FC0038E0104B02225A6118490D4804F00AFFDB
:10150C0030E017490A4804F005FF0948FEF718FEB9
:10151C0003469AB24FF480530549034803F04DFB40
:10152C00D6E000BFD46D0008E0010020D86D0008A3
:10153C006804002044040020E46D0008FC6D0008E1
:10154C00146E00082C6E0008446E00085C6E0008D7
:10155C00746E00088C6E0008A46E0008BC6E000847
:10156C00D46E0008FB79002B0AD05B48FEF7E8FD2F
:10157C0003469AB24FF480535749584803F01DFB69
:10158C00574B4FF480721A80554B4FF480529A602F
:10159C00534B5B691B01524AD360514BDB68504A79
:1015AC00926802FB03F34E4A1288B3FBF2F34C4AE7
:1015BC0053604B4B9B681B01494A1361484BDB68DA
:1015CC00474A926802FB03F39B0A454A9361FB79F5
:1015DC00002B7DD0424B1B881A4642493E4804F0F2
:1015EC0099FE3D48FEF7ACFD03469AB24FF480538A
:1015FC0039493A4803F0E1FA394B5B681A463A49E3
:10160C00354804F087FE3448FEF79AFD03469AB23B
:10161C004FF480533049314803F0CFFA304B9B687C
:10162C001A4632492C4804F075FE2B48FEF788FD0B
:10163C0003469AB24FF480532749284803F0BDFA69
:10164C00274BDB681A462A49234804F063FE2248DC
:10165C00FEF776FD03469AB24FF480531E491F489D
:10166C0003F0ABFA1E4B1B691A4622491A4804F0C8
:10167C0051FE1948FEF764FD03469AB24FF48053AD
:10168C001549164803F099FA154B5B691A461A4925
:10169C00114804F03FFE1048FEF752FD03469AB283
:1016AC004FF480530C490D4803F087FA0C4B9B699F
:1016BC001A461249084804F02DFE0748FEF740FD73
:1016CC0003469AB24FF480530349044803F075FA69
:1016DC001037BD4680BD00BF68040020E00100202B
:1016EC0044040020E86E0008006F0008146F000826
:1016FC00806D00082C6F0008446F0008586F0008BC
:10170C0080B584B000AFF860B9607A603B60374B4D
:10171C001B881A463B68934202D9344B1B883B60AA
:10172C007A683B681344314A1288934205D92F4B8F
:10173C001B881A467B68D31A3B602C4B1B881A46B5
:10174C00BB6802FB03F37A681344BB60284B0B2283
:10175C001A70264BDB7F002B1FD0BB681B0EDAB236
:10176C00234B5A70BB681B0CDAB2214B9A70BB68C6
:10177C001B0ADAB21E4BDA70BB68DAB21C4B1A7158
:10178C001B4B00225A71002210211A4800F0E5FD73
:10179C0006211748FFF790FC19E0BB681B0CDAB266
:1017AC00134B5A70BB681B0ADAB2114B9A70BB68A8
:1017BC00DAB20F4BDA700E4B00221A710022102194
:1017CC000C4800F0CAFD05210948FFF775FC3B6881
:1017DC009BB21946F868FFF783FC012210210548DB
:1017EC0000F0BBFD00BF1037BD4680BD4404002097
:1017FC00880400200008014080B584B000AF034687
:10180C000A46FB711346BB71FB7903F07F03DBB215
:10181C003B73BB793B72002201210E4800F09DFD09
:10182C0007F10C014FF0FF3301220B4801F0A4FA31
:10183C0007F108014FF0FF330122074801F09CFA31
:10184C0001220121034800F088FD00BF1037BD467E
:10185C0080BD00BF000C0140A000002080B584B00A
:10186C0000AF0346FB71FB7963F07F03DBB23B7384
:10187C00002201210E4800F070FD07F10C014FF021
:10188C00FF3301220B4801F077FA07F10F014FF0FB
:10189C00FF330122074801F0ABFB01220121044870
:1018AC0000F05BFDFB7B18461037BD4680BD00BFCA
:1018BC00000C0140A000002080B500AF00210020EA
:1018CC00FFF79AFF4FF4FA7000F0DCF811210120B9
:1018DC00FFF792FF012000F0D5F819210220FFF745
:1018EC008BFF012000F0CEF82E210320FFF784FFA0
:1018FC00012000F0C7F807210A20FFF77DFF012027
:10190C0000F0C0F804210C20FFF776FF012000F056
:10191C00B9F801210D20FFF76FFF012000F0B2F89C
:10192C0002210E20FFF768FF012000F0ABF8032125
:10193C000F20FFF761FF012000F0A4F80121102017
:10194C00FFF75AFF012000F09DF804211220FFF749
:10195C0053FF012000F096F802212120FFF74CFFE5
:10196C00012000F08FF802212220FFF745FF012013
:10197C0000F088F802212320FFF73EFF012000F041
:10198C0081F802212420FFF737FF012000F07AF8BC
:10199C0008212720FFF730FF012000F073F8702199
:1019AC002F20FFF729FF012000F06CF80121002007
:1019BC00FFF722FF012000F065F800BF80BD00009A
:1019CC0080B500AF084B1B68074A43F01003136047
:1019DC00032000F06BF9002000F008F8FFF79EF8E8
:1019EC000023184680BD00BF0020024080B582B0A5
:1019FC0000AF7860124B1A68124B1B7819464FF4E3
:101A0C007A73B3FBF1F3B2FBF3F3184600F091F9E0
:101A1C000346002B01D001230EE07B680F2B0AD864
:101A2C00002279684FF0FF3000F04BF9064A7B68D2
:101A3C001360002300E0012318460837BD4680BD23
:101A4C0000000020080000200400002080B400AF3B
:101A5C00054B1B781A46054B1B681344034A13604D
:101A6C0000BFBD4680BC70470800002094040020D5
:101A7C0080B400AF024B1B681846BD4680BC704753
:101A8C009404002080B584B000AF7860FFF7F0FFBD
:101A9C00B8607B68FB60FB68B3F1FF3F05D00A4B75
:101AAC001B781A46FB681344FB6000BFFFF7E0FF8E
:101ABC000246BB68D31AFA689A42F7D800BF00BF37
:101ACC001037BD4680BD00BF0800002080B485B033
:101ADC0000AF78607B6803F00703FB600C4BDB689E
:101AEC00BB60BA684FF6FF031340BB60FB681A0279
:101AFC00BB68134343F0BF6343F40033BB60044A39
:101B0C00BB68D36000BF1437BD4680BC704700BFB4
:101B1C0000ED00E080B400AF044BDB681B0A03F05F
:101B2C0007031846BD4680BC704700BF00ED00E0BF
:101B3C0080B483B000AF0346FB7197F90730002BDC
:101B4C000BDBFB7903F01F02064997F907305B09A1
:101B5C00012000FA02F241F8232000BF0C37BD46E9
:101B6C0080BC704700E100E080B483B000AF034656
:101B7C00FB7197F90730002B12DBFB7903F01F0286
:101B8C000A4997F907305B09012000FA02F2203369
:101B9C0041F82320BFF34F8F00BFBFF36F8F00BFFF
:101BAC0000BF0C37BD4680BC704700BF00E100E0B1
:101BBC0080B483B000AF03463960FB7197F90730EE
:101BCC00002B0ADB3B68DAB20C4997F9073012019B
:101BDC00D2B20B4483F800230AE03B68DAB208491E
:101BEC00FB7903F00F03043B1201D2B20B441A76BB
:101BFC0000BF0C37BD4680BC704700BF00E100E061
:101C0C0000ED00E080B489B000AFF860B9607A6094
:101C1C00FB6803F00703FB61FB69C3F10703042BAB
:101C2C0028BF0423BB61FB690433062B02D9FB6973
:101C3C00033B00E000237B614FF0FF32BB6902FAEB
:101C4C0003F3DA43BB681A407B699A404FF0FF31CB
:101C5C007B6901FA03F3D9437B680B4013431846A5
:101C6C002437BD4680BC704780B582B000AF786029
:101C7C007B68013BB3F1807F01D301230FE00A4A5B
:101C8C007B68013B53600F214FF0FF30FFF790FF53
:101C9C00054B00229A60044B07221A600023184659
:101CAC000837BD4680BD00BF10E000E080B582B0B3
:101CBC0000AF78607868FFF709FF00BF0837BD46B2
:101CCC0080BD80B586B000AF0346B9607A60FB7307
:101CDC0000237B61FFF71EFF78617A68B968786929
:101CEC00FFF790FF024697F90F3011461846FFF7A1
:101CFC005FFF00BF1837BD4680BD80B582B000AF16
:101D0C000346FB7197F907301846FFF711FF00BF28
:101D1C000837BD4680BD80B582B000AF0346FB716D
:101D2C0097F907301846FFF71FFF00BF0837BD466D
:101D3C0080BD80B582B000AF78607868FFF794FF03
:101D4C00034618460837BD4680BD80B485B000AF49
:101D5C0078600023FB737B6893F82130022B08D04A
:101D6C007B6804229A637B68002283F8202001237D
:101D7C0020E07B681B681A687B681B6822F00E02E7
:101D8C001A607B681B681A687B681B6822F001026A
:101D9C001A607B681A6C7B68DB6B012101FA02F21A
:101DAC005A607B68012283F821207B68002283F82B
:101DBC002020FB7B18461437BD4680BC70470000C2
:101DCC0080B584B000AF78600023FB737B6893F818
:101DDC002130022B05D07B6804229A630123FB730C
:101DEC0051E07B681B681A687B681B6822F00E0246
:101DFC001A607B681B681A687B681B6822F00102FA
:101E0C001A607B681B68224A934229D07B681B6846
:101E1C00204A934222D07B681B681F4A93421AD0F7
:101E2C007B681B681D4A934212D07B681B681C4A56
:101E3C0093420AD07B681B681A4A934202D14FF432
:101E4C0080130EE04FF080730BE04FF4803308E00A
:101E5C004FF4805305E04FF4807302E0102300E050
:101E6C000123114A53607B68012283F821207B688F
:101E7C00002283F820207B685B6B002B03D07B68EF
:101E8C005B6B78689847FB7B18461037BD4680BD66
:101E9C00080002401C000240300002404400024096
:101EAC00580002406C0002400000024080B48BB02D
:101EBC0000AF7860396000237B6200233B6269E1EC
:101ECC0001227B6A02FA03F3FB613B681B68FA6927
:101EDC001340BB61BA69FB699A4240F058813B6878
:101EEC005B689A4A93425ED0984A934275D8984A56
:101EFC00934258D0964A93426FD8964A934252D006
:101F0C00944A934269D8944A93424CD0924A934251
:101F1C0063D8924A934246D0904A93425DD8122B92
:101F2C002AD8122B59D801A252F823F0B31F00085B
:101F3C008D1F00089F1F0008E11F0008E71F000805
:101F4C00E71F0008E71F0008E71F0008E71F00084D
:101F5C00E71F0008E71F0008E71F0008E71F00083D
:101F6C00E71F0008E71F0008E71F0008E71F00082D
:101F7C00951F0008A91F0008794A934213D02CE042
:101F8C003B68DB683B6229E03B68DB6804333B62FF
:101F9C0024E03B68DB6808333B621FE03B68DB688E
:101FAC000C333B621AE03B689B68002B02D1042384
:101FBC003B6213E03B689B68012B05D108233B6215
:101FCC007B68FA691A6109E008233B627B68FA694D
:101FDC005A6103E000233B6200E000BFBB69FF2BAA
:101FEC0001D87B6801E07B6804337B61BB69FF2B04
:101FFC0002D87B6A9B0002E07B6A083B9B003B613A
:10200C007B691A680F213B6901FA03F3DB431A4021
:10201C00396A3B6901FA03F31A437B691A603B681E
:10202C005B6803F08053002B00F0B1804D4B9B6933
:10203C004C4A43F0010393614A4B9B6903F0010343
:10204C00BB60BB68484A7B6A9B08023352F823305A
:10205C00FB607B6A03F003039B000F2202FA03F37D
:10206C00DB43FA681340FB607B68404A934213D011
:10207C007B683F4A93420DD07B683E4A934207D01F
:10208C007B683D4A934201D1032306E0042304E01C
:10209C00022302E0012300E000237A6A02F003022B
:1020AC0092009340FA681343FB602F497B6A9B08AC
:1020BC000233FA6841F823203B685B6803F48033F1
:1020CC00002B06D02D4B1A682C49BB6913430B60AF
:1020DC0006E02A4B1A68BB69DB43284913400B60A6
:1020EC003B685B6803F40033002B06D0234B5A6823
:1020FC002249BB6913434B6006E0204B5A68BB690D
:10210C00DB431E4913404B603B685B6803F4801350
:10211C00002B06D0194B9A681849BB6913438B6086
:10212C0006E0164B9A68BB69DB43144913408B607D
:10213C003B685B6803F40013002B21D00F4BDA686B
:10214C000E49BB691343CB6021E000BF0000321085
:10215C0000003110000022100000211000001210AD
:10216C000000111000100240000001400008014066
:10217C00000C01400010014000140140000401401B
:10218C000B4BDA68BB69DB4309491340CB607B6AB4
:10219C0001337B623B681A687B6A22FA03F3002BDB
:1021AC007FF48EAE00BF00BF2C37BD4680BC70479D
:1021BC000004014080B489B000AF7860396000231E
:1021CC00FB619AE00122FB6902FA03F33A681340BF
:1021DC00BB61BB69002B00F08D804E4AFB699B08EC
:1021EC00023352F823307B61FB6903F003039B003D
:1021FC000F2202FA03F37A6913407B617B68464A2B
:10220C00934213D07B68454A93420DD07B68444A75
:10221C00934207D07B68434A934201D1032306E0E3
:10222C00042304E0022302E0012300E00023FA6906
:10223C0002F00302920093407A699A4232D1FB6910
:10224C0003F003039B000F2202FA03F37B61314A74
:10225C00FB699B08023352F823107B69DA432D4843
:10226C00FB699B080A40023340F823202E4B1A6866
:10227C00BB69DB432C4913400B602B4B5A68BB6981
:10228C00DB43294913404B60274B9A68BB69DB43FE
:10229C00254913408B60244BDA68BB69DB43224928
:1022AC001340CB60BB69FF2B01D87B6801E07B68D6
:1022BC0004333B61BB69FF2B02D8FB699B0002E036
:1022CC00FB69083B9B00FB603B691A680F21FB68AC
:1022DC0001FA03F3DB431A400421FB6801FA03F310
:1022EC001A433B691A607B68DA68BB69DB431A40A6
:1022FC007B68DA60FB690133FB613A68FB6922FA9F
:10230C0003F3002B7FF45EAF00BF00BF2437BD4644
:10231C0080BC70470000014000080140000C0140E7
:10232C0000100140001401400004014080B485B04D
:10233C0000AF78600B467B807B689A687B88134083
:10234C00002B02D00123FB7301E00023FB73FB7B0A
:10235C0018461437BD4680BC704780B483B000AFBC
:10236C0078600B467B8013467B707B78002B03D008
:10237C007A887B681A6103E07B881A047B681A618F
:10238C0000BF0C37BD4680BC704780B485B000AF31
:10239C0078600B467B807B68DB68FB607A88FB6827
:1023AC0013401A04FB68D9437B880B401A437B68A3
:1023BC001A6100BF1437BD4680BC704780B582B02F
:1023CC0000AF0346FB80084B5A69FB881340002B77
:1023DC0006D0054AFB885361FB88184603F0E2F8E7
:1023EC0000BF0837BD4680BD0004014080B586B0F3
:1023FC0000AF78607B68002B01D1012372E27B680F
:10240C001B6803F00103002B00F08780924B5B6884
:10241C0003F00C03042B0CD08F4B5B6803F00C0304
:10242C00082B12D18C4B5B6803F48033B3F5803FDF
:10243C000BD1894B1B6803F40033002B6CD07B68E9
:10244C005B68002B68D101234CE27B685B68B3F5B9
:10245C00803F06D1804B1B687F4A43F48033136066
:10246C002EE07B685B68002B0CD17B4B1B687A4A97
:10247C0023F480331360784B1B68774A23F4802352
:10248C0013601DE07B685B68B3F5A02F0CD1724B19
:10249C001B68714A43F4802313606F4B1B686E4AB0
:1024AC0043F4803313600BE06B4B1B686A4A23F4D4
:1024BC0080331360684B1B68674A23F480231360D6
:1024CC007B685B68002B13D0FFF7D2FA386108E009
:1024DC00FFF7CEFA02463B69D31A642B01D90323CA
:1024EC0000E25D4B1B6803F40033002BF0D014E0CA
:1024FC00FFF7BEFA386108E0FFF7BAFA02463B690B
:10250C00D31A642B01D90323ECE1534B1B6803F45E
:10251C000033002BF0D100E000BF7B681B6803F098
:10252C000203002B63D04C4B5B6803F00C03002BB5
:10253C000BD0494B5B6803F00C03082B1CD1464BAA
:10254C005B6803F48033002B16D1434B1B6803F0FC
:10255C000203002B05D07B681B69012B01D00123E2
:10256C00C0E13D4B1B6823F0F8027B685B69DB0024
:10257C00394913430B603AE07B681B69002B20D070
:10258C00364B01221A60FFF773FA386108E0FFF747
:10259C006FFA02463B69D31A022B01D90323A1E13E
:1025AC002D4B1B6803F00203002BF0D02A4B1B6849
:1025BC0023F0F8027B685B69DB00274913430B604F
:1025CC0015E0264B00221A60FFF752FA386108E03A
:1025DC00FFF74EFA02463B69D31A022B01D90323AB
:1025EC0080E11D4B1B6803F00203002BF0D17B68CC
:1025FC001B6803F00803002B3AD07B689B69002B07
:10260C0019D0174B01221A60FFF732FA386108E033
:10261C00FFF72EFA02463B69D31A022B01D903238A
:10262C0060E10D4B5B6A03F00203002BF0D001203C
:10263C0000F0D8FA1CE00A4B00221A60FFF718FAD7
:10264C0038610FE0FFF714FA02463B69D31A022BEC
:10265C0008D9032346E100BF0010024000004242AB
:10266C0080044242924B5B6A03F00203002BE9D1D7
:10267C007B681B6803F00403002B00F0A68000238A
:10268C00FB758B4BDB6903F08053002B0DD1884B12
:10269C00DB69874A43F08053D361854BDB6903F0D8
:1026AC008053BB60BB680123FB75824B1B6803F432
:1026BC008073002B18D17F4B1B687E4A43F48073C8
:1026CC001360FFF7D5F9386108E0FFF7D1F902463E
:1026DC003B69D31A642B01D9032303E1754B1B68A7
:1026EC0003F48073002BF0D07B68DB68012B06D1E0
:1026FC006F4B1B6A6E4A43F0010313622DE07B683B
:10270C00DB68002B0CD16A4B1B6A694A23F001036E
:10271C001362674B1B6A664A23F0040313621CE0C6
:10272C007B68DB68052B0CD1614B1B6A604A43F05C
:10273C00040313625E4B1B6A5D4A43F00103136290
:10274C000BE05B4B1B6A5A4A23F001031362584B94
:10275C001B6A574A23F0040313627B68DB68002B67
:10276C0015D0FFF785F938610AE0FFF781F90246C9
:10277C003B69D31A41F28832934201D90323B1E069
:10278C004B4B1B6A03F00203002BEED014E0FFF757
:10279C006FF938610AE0FFF76BF902463B69D31A0F
:1027AC0041F28832934201D903239BE0404B1B6AD0
:1027BC0003F00203002BEED1FB7D012B05D13C4B2A
:1027CC00DB693B4A23F08053D3617B68DB69002BC8
:1027DC0000F08780364B5B6803F00C03082B61D04C
:1027EC007B68DB69022B46D1334B00221A60FFF762
:1027FC003FF9386108E0FFF73BF902463B69D31A11
:10280C00022B01D903236DE0294B1B6803F00073E5
:10281C00002BF0D17B681B6AB3F5803F08D1244BA9
:10282C005B6823F400327B689B68214913434B603F
:10283C001F4B5B6823F474127B68196A7B685B6AB4
:10284C000B431B4913434B601B4B01221A60FFF7D0
:10285C000FF9386108E0FFF70BF902463B69D31A10
:10286C00022B01D903233DE0114B1B6803F00073CD
:10287C00002BF0D035E0104B00221A60FFF7F8F86F
:10288C00386108E0FFF7F4F802463B69D31A022BD3
:10289C0001D9032326E0064B1B6803F00073002BC1
:1028AC00F0D11EE07B68DB69012B07D1012319E015
:1028BC000010024000700040600042420B4B5B680D
:1028CC00FB60FB6803F480327B681B6A9A4206D17A
:1028DC00FB6803F470127B685B6A9A4201D0012397
:1028EC0000E0002318461837BD4680BD001002409A
:1028FC0080B584B000AF786039607B68002B01D163
:10290C000123D0E06A4B1B6803F007033A689A4234
:10291C0010D9674B1B6823F0070265493B681343CA
:10292C000B60634B1B6803F007033A689A4201D0B3
:10293C000123B8E07B681B6803F00203002B20D056
:10294C007B681B6803F00403002B05D0594B5B68B4
:10295C00584A43F4E06353607B681B6803F0080338
:10296C00002B05D0534B5B68524A43F460535360C1
:10297C00504B5B6823F0F0027B689B684D49134316
:10298C004B607B681B6803F00103002B40D07B6815
:10299C005B68012B07D1474B1B6803F40033002BFA
:1029AC0015D101237FE07B685B68022B07D1414B7B
:1029BC001B6803F00073002B09D1012373E03D4B1E
:1029CC001B6803F00203002B01D101236BE0394B90
:1029DC005B6823F003027B685B68364913434B60EA
:1029EC00FFF746F8F8600AE0FFF742F80246FB688A
:1029FC00D31A41F28832934201D9032353E02D4B71
:102A0C005B6803F00C027B685B689B009A42EBD11D
:102A1C00274B1B6803F007033A689A4210D2244BE9
:102A2C001B6823F0070222493B6813430B60204BC1
:102A3C001B6803F007033A689A4201D0012332E085
:102A4C007B681B6803F00403002B08D0194B5B68F0
:102A5C0023F4E0627B68DB68164913434B607B68A8
:102A6C001B6803F00803002B09D0124B5B6823F49E
:102A7C0060527B681B69DB000E4913434B6000F00E
:102A8C0021F802460B4B5B681B0903F00F030A4944
:102A9C00CB5C22FA03F3094A1360094B1B681846F6
:102AAC00FEF7A4FF002318461037BD4680BD00BFBB
:102ABC0000200240001002407C6F00080000002043
:102ACC000400002090B48AB000AF294B3C1D0FCB02
:102ADC0084E80F0040F201233B800023FB610023BC
:102AEC00BB6100237B6200237B6100233B62214B93
:102AFC005B68FB61FB6903F00C03042B02D0082B11
:102B0C0003D02BE01C4B3B622BE0FB699B0C03F0CE
:102B1C000F0328333B4413F8243C7B61FB6903F41B
:102B2C008033002B12D0134B5B685B0C03F001035A
:102B3C0028333B4413F8283CBB617B690E4A03FBEA
:102B4C0002F2BB69B2FBF3F37B6204E07B690B4AD4
:102B5C0002FB03F37B627B6A3B6202E0064B3B6247
:102B6C0000BF3B6A18462837BD4690BC704700BF73
:102B7C006C6F00080010024000127A0000093D0042
:102B8C0080B400AF024B1B681846BD4680BC704732
:102B9C000000002080B500AFFFF7F2FF0246054BA6
:102BAC005B681B0A03F007030349CB5C22FA03F3AF
:102BBC00184680BD001002408C6F000880B500AF35
:102BCC00FFF7DEFF0246054B5B68DB0A03F00703E9
:102BDC000349CB5C22FA03F3184680BD0010024077
:102BEC008C6F000880B485B000AF78600A4B1B680E
:102BFC000A4AA2FB03235B0A7A6802FB03F3FB601D
:102C0C0000BFFB685A1EFA60002BF9D100BF00BF51
:102C1C001437BD4680BC704700000020D34D6210B5
:102C2C0080B582B000AF78607B68002B01D10123A6
:102C3C0076E07B685B6A002B08D17B685B68B3F538
:102C4C00827F09D07B680022DA6105E07B68002274
:102C5C001A617B6800225A617B6800229A627B6849
:102C6C0093F85130DBB2002B06D17B68002283F83D
:102C7C0050207868FDF784FF7B68022283F851208E
:102C8C007B681B681A687B681B6822F040021A601C
:102C9C007B685B6803F482727B689B6803F4044373
:102CAC001A437B68DB6803F400631A437B681B6977
:102CBC0003F002031A437B685B6903F001031A43B8
:102CCC007B689B6903F400731A437B68DB6903F030
:102CDC0038031A437B681B6A03F0800342EA030142
:102CEC007B689B6A03F400527B681B680A431A607A
:102CFC007B689B691A0C7B681B6802F004025A60A3
:102D0C007B681B68DA697B681B6822F40062DA61F5
:102D1C007B6800225A657B68012283F851200023CE
:102D2C0018460837BD4680BD80B582B000AF7860CC
:102D3C007B68002B01D101231AE07B68022283F807
:102D4C0051207B681B681A687B681B6822F0400264
:102D5C001A607868FDF7A2FF7B6800225A657B68D1
:102D6C00002283F851207B68002283F85020002336
:102D7C0018460837BD4680BD80B588B000AFF860F6
:102D8C00B9603B601346FB800023FB77FB6893F82C
:102D9C005030012B01D1022326E1FB68012283F87C
:102DAC005020FEF765FEB861FB88FB82FB6893F848
:102DBC005130DBB2012B02D00223FB770BE1BB6855
:102DCC00002B02D0FB88002B02D10123FB7702E100
:102DDC00FB68032283F85120FB6800225A65FB68CC
:102DEC00BA681A63FB68FA889A86FB68FA88DA86EE
:102DFC00FB6800229A63FB6800229A87FB6800221A
:102E0C00DA87FB6800225A64FB6800221A64FB68AC
:102E1C009B68B3F5004F0FD1FB681B681A68FB6801
:102E2C001B6822F040021A60FB681B681A68FB687A
:102E3C001B6842F480421A60FB681B681B6803F035
:102E4C004003402B07D0FB681B681A68FB681B68A3
:102E5C0042F040021A60FB68DB68B3F5006F4BD19F
:102E6C00FB685B68002B02D0FB8A012B3ED1FB6810
:102E7C001B6B1A88FB681B68DA60FB681B6B9A1C5F
:102E8C00FB681A63FB68DB8E9BB2013B9AB2FB6852
:102E9C00DA862BE0FB681B689B6803F00203022BAD
:102EAC0012D1FB681B6B1A88FB681B68DA60FB6825
:102EBC001B6B9A1CFB681A63FB68DB8E9BB2013B95
:102ECC009AB2FB68DA8611E0FEF7D2FD0246BB69C6
:102EDC00D31A3A689A4203D83B68B3F1FF3F02D148
:102EEC003B68002B02D10323FB7774E0FB68DB8E7D
:102EFC009BB2002BCED14CE0FB685B68002B02D060
:102F0C00FB8A012B40D1FB681A6BFB681B680C33E6
:102F1C0012781A70FB681B6B5A1CFB681A63FB68EF
:102F2C00DB8E9BB2013B9AB2FB68DA862CE0FB6825
:102F3C001B689B6803F00203022B13D1FB681A6B0E
:102F4C00FB681B680C3312781A70FB681B6B5A1CDD
:102F5C00FB681A63FB68DB8E9BB2013B9AB2FB6881
:102F6C00DA8611E0FEF784FD0246BB69D31A3A6893
:102F7C009A4203D83B68B3F1FF3F02D13B68002B68
:102F8C0002D10323FB7726E0FB68DB8E9BB2002B80
:102F9C00CDD1BA693968F86800F010FE0346002BF1
:102FAC0002D0FB6820225A65FB689B68002B0AD173
:102FBC0000233B61FB681B68DB683B61FB681B689B
:102FCC009B683B613B69FB685B6D002B02D0012366
:102FDC00FB7700E000BFFB68012283F85120FB68FF
:102FEC00002283F85020FB7F18462037BD4680BD59
:102FFC0080B588B002AFF860B9603B601346FB80C7
:10300C000023FB75FB685B68B3F5827F12D1FB680C
:10301C009B68002B0ED1FB68042283F85120FA88A0
:10302C003B6800931346BA68B968F86800F0F1F889
:10303C000346EAE0FB6893F85030012B01D10223E0
:10304C00E3E0FB68012283F85020FEF711FD3861A4
:10305C00FB6893F85130DBB2012B02D00223FB75D5
:10306C00CAE0BB68002B02D0FB88002B02D10123E5
:10307C00FB75C1E0FB68042283F85120FB68002239
:10308C005A65FB68BA689A63FB68FA889A87FB688A
:10309C00FA88DA87FB6800221A63FB6800229A869A
:1030AC00FB680022DA86FB6800221A64FB680022A7
:1030BC005A64FB689B68B3F5004F0FD1FB681B6823
:1030CC001A68FB681B6822F040021A60FB681B68D8
:1030DC001A68FB681B6822F480421A60FB681B6844
:1030EC001B6803F04003402B07D0FB681B681A6871
:1030FC00FB681B6842F040021A60FB68DB68002B1F
:10310C0062D12EE0FB681B689B6803F00103012B66
:10311C0015D1FB681B6803F10C02FB689B6B1278E2
:10312C00D2B21A70FB689B6B5A1CFB689A63FB68E3
:10313C00DB8F9BB2013B9AB2FB68DA8711E0FEF79A
:10314C0097FC02463B69D31A3A689A4203D83B680B
:10315C00B3F1FF3F02D13B68002B02D10323FB7577
:10316C004AE0FB68DB8F9BB2002BCBD131E0FB68D4
:10317C001B689B6803F00103012B13D1FB681B68D0
:10318C00DA68FB689B6B92B21A80FB689B6B9A1C8B
:10319C00FB689A63FB68DB8F9BB2013B9AB2FB68BE
:1031AC00DA8711E0FEF764FC02463B69D31A3A68F1
:1031BC009A4203D83B68B3F1FF3F02D13B68002B26
:1031CC0002D10323FB7517E0FB68DB8F9BB2002B4E
:1031DC00CDD13A693968F86800F09EFC0346002BA3
:1031EC0002D0FB6820225A65FB685B6D002B02D075
:1031FC000123FB7500E000BFFB68012283F851201E
:10320C00FB68002283F85020FB7D18461837BD461A
:10321C0080BD80B58CB000AFF860B9607A607B80FF
:10322C000123FB62002387F82B30FB6893F85030A6
:10323C00012B01D102238AE1FB68012283F8502083
:10324C00FEF716FC7862FB6893F8513087F8233050
:10325C00FB685B68FB617B887B8397F82330012BD1
:10326C000FD0FB69B3F5827F07D1FB689B68002BFD
:10327C0003D197F82330042B03D0022387F82B308B
:10328C005BE1BB68002B05D07B68002B02D07B88F0
:10329C00002B03D1012387F82B304EE1FB6893F808
:1032AC005130DBB2042B03D0FB68052283F851208C
:1032BC00FB6800225A65FB687A689A63FB687A8817
:1032CC00DA87FB687A889A87FB68BA681A63FB68A6
:1032DC007A88DA86FB687A889A86FB6800221A64F8
:1032EC00FB6800225A64FB681B681B6803F04003F0
:1032FC00402B07D0FB681B681A68FB681B6842F000
:10330C0040021A60FB68DB68B3F5006F78D1FB688C
:10331C005B68002B02D07B8B012B66D1FB681B6B8F
:10332C001A88FB681B68DA60FB681B6B9A1CFB68CD
:10333C001A63FB68DB8E9BB2013B9AB2FB68DA86A0
:10334C0053E0FB681B689B6803F00203022B1BD144
:10335C00FB68DB8E9BB2002B16D0FB6A012B13D1C2
:10336C00FB681B6B1A88FB681B68DA60FB681B6BBD
:10337C009A1CFB681A63FB68DB8E9BB2013B9AB20A
:10338C00FB68DA860023FB62FB681B689B6803F012
:10339C000103012B19D1FB68DB8F9BB2002B14D0DE
:1033AC00FB681B68DA68FB689B6B92B21A80FB683F
:1033BC009B6B9A1CFB689A63FB68DB8F9BB2013B8F
:1033CC009AB2FB68DA870123FB62FEF751FB0246D7
:1033DC007B6AD31ABA6B9A4207D8BB6BB3F1FF3F27
:1033EC0003D0032387F82B30A7E0FB68DB8E9BB25E
:1033FC00002BA6D1FB68DB8F9BB2002BA1D17CE00C
:10340C00FB685B68002B02D07B8B012B6BD1FB68BC
:10341C001A6BFB681B680C3312781A70FB681B6BF9
:10342C005A1CFB681A63FB68DB8E9BB2013B9AB299
:10343C00FB68DA8657E0FB681B689B6803F00203A5
:10344C00022B1CD1FB68DB8E9BB2002B17D0FB6AC6
:10345C00012B14D1FB681A6BFB681B680C331278B8
:10346C001A70FB681B6B5A1CFB681A63FB68DB8EBB
:10347C009BB2013B9AB2FB68DA860023FB62FB68C5
:10348C001B689B6803F00103012B19D1FB68DB8FD0
:10349C009BB2002B14D0FB681B68DA68FB689B6B33
:1034AC00D2B21A70FB689B6B5A1CFB689A63FB6860
:1034BC00DB8F9BB2013B9AB2FB68DA870123FB627C
:1034CC00FEF7D6FA02467B6AD31ABA6B9A4203D835
:1034DC00BB6BB3F1FF3F02D1BB6B002B03D10323BA
:1034EC0087F82B3029E0FB68DB8E9BB2002BA2D136
:1034FC00FB68DB8F9BB2002B9DD17A6AB96BF868A5
:10350C0000F05CFB0346002B06D0012387F82B3020
:10351C00FB6820225A6510E0FB689B68002B0BD1DE
:10352C0000237B61FB681B68DB687B61FB681B68A5
:10353C009B687B617B6900E000BFFB68012283F81C
:10354C005120FB68002283F8502097F82B30184646
:10355C003037BD4680BD000080B487B000AFF86046
:10356C00B9607A607B800023FB75FB6893F8503060
:10357C00012B01D1022375E0FB68012283F8502056
:10358C00FB6893F85130BB75FB685B683B61BB7D96
:10359C00012B0DD03B69B3F5827F06D1FB689B688C
:1035AC00002B02D1BB7D042B02D00223FB7554E00F
:1035BC00BB68002B05D07B68002B02D07B88002BCE
:1035CC0002D10123FB7548E0FB6893F85130DBB264
:1035DC00042B03D0FB68052283F85120FB680022E2
:1035EC005A65FB68BA681A63FB687A889A86FB6826
:1035FC007A88DA86FB687A689A63FB687A889A8795
:10360C00FB687A88DA87FB68DB68002B06D0FB68DE
:10361C00174A1A64FB68174A5A6405E0FB68164A95
:10362C001A64FB68154A5A64FB681B685A68FB6885
:10363C001B6842F0E0025A60FB681B681B6803F0D1
:10364C004003402B08D0FB681B681A68FB681B689A
:10365C0042F040021A6000E000BFFB68002283F8D1
:10366C005020FB7D18461C37BD4680BC704700BF00
:10367C0057390008B739000893380008F7380008A4
:10368C0080B588B000AF78607B681B685B68FB61B5
:10369C007B681B689B68BB61BB699B0903F00103DA
:1036AC00002B0FD1BB6903F00103002B0AD0FB697F
:1036BC009B0903F00103002B04D07B681B6C78681A
:1036CC009847BEE0BB695B0803F00103002B0AD0EE
:1036DC00FB69DB0903F00103002B04D07B685B6CF6
:1036EC0078689847ADE0BB695B0903F00103002BD8
:1036FC0006D1BB699B0903F00103002B00F0A180EC
:10370C00FB695B0903F00103002B00F09A80BB6995
:10371C009B0903F00103002B23D07B6893F85130F5
:10372C00DBB2032B11D07B685B6D43F004027B682A
:10373C005A6500237B617B681B68DB687B617B6857
:10374C001B689B687B617B690BE000233B617B689A
:10375C001B68DB683B617B681B689B683B613B6952
:10376C006FE0BB695B0903F00103002B14D07B688D
:10377C005B6D43F001027B685A650023FB607B683C
:10378C001B689B68FB607B681B681A687B681B68FE
:10379C0022F040021A60FB687B685B6D002B4FD0F7
:1037AC007B681B685A687B681B6822F0E0025A60D1
:1037BC007B68012283F85120FB6903F00203002B84
:1037CC0004D1FB6903F00103002B34D07B681B6828
:1037DC005A687B681B6822F003025A607B68DB6CBA
:1037EC00002B11D07B68DB6C174A5A637B68DB6C4F
:1037FC001846FEF7E5FA0346002B05D07B685B6D97
:10380C0043F040027B685A657B689B6C002B16D09A
:10381C007B689B6C0C4A5A637B689B6C1846FEF762
:10382C00CFFA0346002B0AD07B685B6D43F0400255
:10383C007B685A6503E07868FDF74EF900E000BF3D
:10384C0000BF2037BD4680BD6B38000880B483B004
:10385C0000AF786000BF0C37BD4680BC704780B5A8
:10386C0084B000AF78607B685B6AFB60FB68002209
:10387C00DA87FB680022DA86F868FDF72DF900BFBD
:10388C001037BD4680BD80B582B000AF78607B68D4
:10389C001B6803F10C027B689B6B1278D2B21A7016
:1038AC007B689B6B5A1C7B689A637B68DB8F9BB233
:1038BC00013B9AB27B68DA877B68DB8F9BB2002B6B
:1038CC000FD17B681B685A687B681B6822F060020A
:1038DC005A607B68DB8E9BB2002B02D1786800F0BB
:1038EC008BF900BF0837BD4680BD80B582B000AFF4
:1038FC0078607B681A6B7B681B680C3312781A70C3
:10390C007B681B6B5A1C7B681A637B68DB8E9BB2D3
:10391C00013B9AB27B68DA867B68DB8E9BB2002B0C
:10392C000FD17B681B685A687B681B6822F0800289
:10393C005A607B68DB8F9BB2002B02D1786800F059
:10394C005BF900BF0837BD4680BD80B582B000AFC3
:10395C0078607B681B68DA687B689B6B92B21A8014
:10396C007B689B6B9A1C7B689A637B68DB8F9BB232
:10397C00013B9AB27B68DA877B68DB8F9BB2002BAA
:10398C000FD17B681B685A687B681B6822F0400269
:10399C005A607B68DB8E9BB2002B02D1786800F0FA
:1039AC002BF900BF0837BD4680BD80B582B000AF93
:1039BC0078607B681B6B1A887B681B68DA607B6895
:1039CC001B6B9A1C7B681A637B68DB8E9BB2013B7A
:1039DC009AB27B68DA867B68DB8E9BB2002B0FD1A8
:1039EC007B681B685A687B681B6822F080025A60EF
:1039FC007B68DB8F9BB2002B02D1786800F0FCF85F
:103A0C0000BF0837BD4680BD80B588B000AFF860F8
:103A1C00B9603B601346FB71FEF72AF80246BB6A9D
:103A2C009B1A3A681344FB61FEF722F8B861394BD4
:103A3C001B685B011B0DFA6902FB03F37B6154E00D
:103A4C003B68B3F1FF3F50D0FEF712F80246BB695A
:103A5C00D31AFA699A4202D9FB69002B3DD1FB6853
:103A6C001B685A68FB681B6822F0E0025A60FB680E
:103A7C005B68B3F5827F11D1FB689B68B3F5004F8F
:103A8C0004D0FB689B68B3F5806F07D1FB681B689B
:103A9C001A68FB681B6822F040021A60FB689B6A7C
:103AAC00B3F5005F0FD1FB681B681A68FB681B68D5
:103ABC0022F400521A60FB681B681A68FB681B68CA
:103ACC0042F400521A60FB68012283F85120FB6813
:103ADC00002283F85020032317E07B69002B01D1CF
:103AEC000023FB617B69013B7B61FB681B689A6867
:103AFC00BB681340BA689A420CBF01230023DBB2A7
:103B0C001A46FB799A429BD1002318462037BD46B2
:103B1C0080BD00BF0000002080B586B002AFF86009
:103B2C00B9607A60FB685B68B3F5827F11D1FB6882
:103B3C009B68B3F5004F04D0FB689B68B3F5806FAE
:103B4C0007D1FB681B681A68FB681B6822F04002EF
:103B5C001A60FB685B68B3F5827F17D1FB689B68C2
:103B6C00B3F5806F12D17B680093BB6800220121F2
:103B7C00F868FFF749FF0346002B1AD0FB685B6D12
:103B8C0043F02002FB685A65032313E07B68009323
:103B9C00BB6800228021F868FFF736FF0346002B34
:103BAC0007D0FB685B6D43F02002FB685A6503236A
:103BBC0000E0002318461037BD4680BD80B586B0A6
:103BCC0002AFF860B9607A607B680093BB68002232
:103BDC008021F868FFF718FF0346002B07D0FB681D
:103BEC005B6D43F02002FB685A65032300E0002361
:103BFC0018461037BD4680BD80B586B000AF7860E2
:103C0C00354B1B68354AA2FB03235B0A642202FB7B
:103C1C0003F33B61FDF72CFF78617B681B685A68E6
:103C2C007B681B6822F020025A603B69002B06D18E
:103C3C007B685B6D43F020027B685A6509E03B6949
:103C4C00013B3B617B681B689B6803F00203002B04
:103C5C00EBD07A6964217868FFF7B0FF0346002B3C
:103C6C0005D07B685B6D43F020027B685A657B68EE
:103C7C009B68002B0AD10023FB607B681B68DB6808
:103C8C00FB607B681B689B68FB60FB687B685B6DFB
:103C9C00002B15D17B6893F85130DBB2042B07D184
:103CAC007B68012283F851207868FFF7CFFD0EE086
:103CBC007B68012283F85120786801F04DFD06E005
:103CCC007B68012283F851207868FCF705FF00BF60
:103CDC001837BD4680BD00BF00000020F1197605E5
:103CEC0080B582B000AF78607B68002B01D10123D6
:103CFC0041E07B6893F83D30DBB2002B06D17B684A
:103D0C00002283F83C207868FCF7FEFF7B680222D7
:103D1C0083F83D207B681A687B680433194610468B
:103D2C0000F0EAFB7B68012283F846207B680122C5
:103D3C0083F83E207B68012283F83F207B680122B8
:103D4C0083F840207B68012283F841207B680122A4
:103D5C0083F842207B68012283F843207B68012290
:103D6C0083F844207B68012283F845207B6801227C
:103D7C0083F83D20002318460837BD4680BD00005F
:103D8C0080B485B000AF78607B6893F83D30DBB2CF
:103D9C00012B01D001233AE07B68022283F83D20FD
:103DAC007B681B68DA687B681B6842F00102DA608A
:103DBC007B681B68184A93420ED07B681B68B3F172
:103DCC00804F09D07B681B68144A934204D07B68EF
:103DDC001B68134A934211D17B681B689B6803F0E4
:103DEC000703FB60FB68062B10D07B681B681A6806
:103DFC007B681B6842F001021A6007E07B681B6855
:103E0C001A687B681B6842F001021A60002318468E
:103E1C001437BD4680BC7047002C014000040040A4
:103E2C000008004080B582B000AF78607B68002B42
:103E3C0001D1012341E07B6893F83D30DBB2002BCC
:103E4C0006D17B68002283F83C20786800F039F8B2
:103E5C007B68022283F83D207B681A687B680433F8
:103E6C001946104600F048FB7B68012283F8462077
:103E7C007B68012283F83E207B68012283F83F2077
:103E8C007B68012283F840207B68012283F8412063
:103E9C007B68012283F842207B68012283F843204F
:103EAC007B68012283F844207B68012283F845203B
:103EBC007B68012283F83D20002318460837BD4655
:103ECC0080BD80B483B000AF786000BF0C37BD46B6
:103EDC0080BC704780B582B000AF786039607B6879
:103EEC00002B01D1012341E07B6893F83D30DBB21C
:103EFC00002B06D17B68002283F83C20786800F008
:103F0C0039F87B68022283F83D207B681A687B684D
:103F1C0004331946104600F0EFFA7B681B681A68E8
:103F2C007B681B6822F008021A607B681B681968A2
:103F3C007B681B683A680A431A607B68012283F825
:103F4C0046207B68012283F83E207B68012283F89F
:103F5C003F207B68012283F842207B68012283F892
:103F6C0043207B68012283F83D2000231846083744
:103F7C00BD4680BD80B483B000AF786000BF0C3705
:103F8C00BD4680BC704780B582B000AF78607B685E
:103F9C001B681B6903F00203022B22D17B681B6890
:103FAC00DB6803F00203022B1BD17B681B686FF0EC
:103FBC0002021A617B6801221A777B681B689B6975
:103FCC0003F00303002B03D0786800F079FA05E0C6
:103FDC00786800F06CFA786800F07BFA7B68002255
:103FEC001A777B681B681B6903F00403042B22D12E
:103FFC007B681B68DB6803F00403042B1BD17B6814
:10400C001B686FF004021A617B6802221A777B68C6
:10401C001B689B6903F44073002B03D0786800F095
:10402C004FFA05E0786800F042FA786800F051FA2F
:10403C007B6800221A777B681B681B6903F00803F6
:10404C00082B22D17B681B68DB6803F00803082B64
:10405C001BD17B681B686FF008021A617B68042215
:10406C001A777B681B68DB6903F00303002B03D012
:10407C00786800F025FA05E0786800F018FA78689E
:10408C0000F027FA7B6800221A777B681B681B6993
:10409C0003F01003102B22D17B681B68DB6803F044
:1040AC001003102B1BD17B681B686FF010021A6178
:1040BC007B6808221A777B681B68DB6903F4407302
:1040CC00002B03D0786800F0FBF905E0786800F06D
:1040DC00EEF9786800F0FDF97B6800221A777B68AE
:1040EC001B681B6903F00103012B0ED17B681B6855
:1040FC00DB6803F00103012B07D17B681B686FF0B1
:10410C0001021A61786800F0C9F97B681B681B69A9
:10411C0003F08003802B0ED17B681B68DB6803F0F7
:10412C008003802B07D17B681B686FF080021A61BB
:10413C00786800F0ECFC7B681B681B6903F040039B
:10414C00402B0ED17B681B68DB6803F04003402BCF
:10415C0007D17B681B686FF040021A61786800F029
:10416C00C1F97B681B681B6903F02003202B0ED15F
:10417C007B681B68DB6803F02003202B07D17B686E
:10418C001B686FF020021A61786800F0B7FC00BF62
:10419C000837BD4680BD000080B584B000AFF86024
:1041AC00B9607A60FB6893F83C30012B01D1022393
:1041BC00ACE0FB68012283F83C207B680C2B00F2FE
:1041CC009F8001A252F823F0094200080D43000819
:1041DC000D4300080D430008494200080D43000838
:1041EC000D4300080D4300088B4200080D430008E6
:1041FC000D4300080D430008CB420008FB681B6808
:10420C00B968184600F0DAF9FB681B689A69FB6814
:10421C001B6842F008029A61FB681B689A69FB688C
:10422C001B6822F004029A61FB681B689969BB68E1
:10423C001A69FB681B680A439A6162E0FB681B6899
:10424C00B968184600F020FAFB681B689A69FB688D
:10425C001B6842F400629A61FB681B689A69FB68F0
:10426C001B6822F480629A61FB681B689969BB68C1
:10427C001B691A02FB681B680A439A6141E0FB68E0
:10428C001B68B968184600F069FAFB681B68DA69A4
:10429C00FB681B6842F00802DA61FB681B68DA698C
:1042AC00FB681B6822F00402DA61FB681B68D969A1
:1042BC00BB681A69FB681B680A43DA6121E0FB687A
:1042CC001B68B968184600F0B3FAFB681B68DA691A
:1042DC00FB681B6842F40062DA61FB681B68DA69F0
:1042EC00FB681B6822F48062DA61FB681B68D96981
:1042FC00BB681B691A02FB681B680A43DA6100E0A1
:10430C0000BFFB68002283F83C20002318461037BE
:10431C00BD4680BD80B584B000AF786039607B68E5
:10432C0093F83C30012B01D10223B3E07B680122CE
:10433C0083F83C207B68022283F83D207B681B6855
:10434C009B68FB60FB6823F07703FB60FB6823F43E
:10435C007F43FB607B681B68FA689A603B681B684C
:10436C00B3F5005F3ED0B3F5005F00F28780B3F584
:10437C00805F00F08580B3F5805F7FD8702B1AD0FA
:10438C00702B7BD8602B50D0602B77D8502B3CD027
:10439C00502B73D8402B58D0402B6FD8302B64D077
:1043AC00302B6BD8202B60D0202B67D8002B5CD007
:1043BC00102B5AD062E07B6818683B6899683B68A0
:1043CC005A683B68DB6800F0F8FA7B681B689B68EE
:1043DC00FB60FB6843F07703FB607B681B68FA6843
:1043EC009A604EE07B6818683B6899683B685A682D
:1043FC003B68DB6800F0E1FA7B681B689A687B68B5
:10440C001B6842F480429A603BE07B6818683B680A
:10441C0059683B68DB681A4600F058FA7B681B68E1
:10442C005021184600F0AFFA2BE07B6818683B6807
:10443C0059683B68DB681A4600F076FA7B681B68A3
:10444C006021184600F09FFA1BE07B6818683B68F7
:10445C0059683B68DB681A4600F038FA7B681B68C1
:10446C004021184600F08FFA0BE07B681A683B6815
:10447C001B681946104600F086FA02E000BF00E007
:10448C0000BF7B68012283F83D207B68002283F803
:10449C003C20002318461037BD4680BD80B483B045
:1044AC0000AF786000BF0C37BD4680BC704780B44D
:1044BC0083B000AF786000BF0C37BD4680BC70473E
:1044CC0080B483B000AF786000BF0C37BD4680BCB1
:1044DC00704780B483B000AF786000BF0C37BD4626
:1044EC0080BC704780B483B000AF786000BF0C37DD
:1044FC00BD4680BC7047000080B485B000AF7860CA
:10450C0039607B681B68FB607B68294A93420BD03F
:10451C007B68B3F1804F07D07B68264A934203D067
:10452C007B68254A934208D1FB6823F07003FB603B
:10453C003B685B68FA681343FB607B681C4A9342D8
:10454C000BD07B68B3F1804F07D07B68194A93423C
:10455C0003D07B68184A934208D1FB6823F440735C
:10456C00FB603B68DB68FA681343FB60FB6823F075
:10457C0080023B685B691343FB607B68FA681A60D6
:10458C003B689A687B68DA623B681A687B689A6257
:10459C007B68074A934203D13B681A697B681A63AC
:1045AC007B6801225A6100BF1437BD4680BC70473E
:1045BC00002C0140000400400008004080B487B08B
:1045CC0000AF786039607B681B6A23F001027B685E
:1045DC001A627B681B6A7B617B685B683B617B68EA
:1045EC009B69FB60FB6823F07003FB60FB6823F0A6
:1045FC000303FB603B681B68FA681343FB607B6931
:10460C0023F002037B613B689B687A6913437B61EF
:10461C007B681C4A93420CD17B6923F008037B61B5
:10462C003B68DB687A6913437B617B6923F0040385
:10463C007B617B68134A934211D13B6923F48073ED
:10464C003B613B6923F400733B613B685B693A69EE
:10465C0013433B613B689B693A6913433B617B683D
:10466C003A695A607B68FA689A613B685A687B6859
:10467C005A637B687A691A6200BF1C37BD4680BCDE
:10468C00704700BF002C014080B487B000AF786049
:10469C0039607B681B6A23F010027B681A627B68A6
:1046AC001B6A7B617B685B683B617B689B69FB6019
:1046BC00FB6823F4E043FB60FB6823F44073FB606E
:1046CC003B681B681B02FA681343FB607B6923F091
:1046DC0020037B613B689B681B017A6913437B61F8
:1046EC007B681D4A93420DD17B6923F080037B616B
:1046FC003B68DB681B017A6913437B617B6923F0A0
:10470C0040037B617B68144A934213D13B6923F4C9
:10471C0080633B613B6923F400633B613B685B69ED
:10472C009B003A6913433B613B689B699B003A6968
:10473C0013433B617B683A695A607B68FA689A61FB
:10474C003B685A687B689A637B687A691A6200BF17
:10475C001C37BD4680BC7047002C014080B487B02C
:10476C0000AF786039607B681B6A23F480727B68C9
:10477C001A627B681B6A7B617B685B683B617B6848
:10478C00DB69FB60FB6823F07003FB60FB6823F0C4
:10479C000303FB603B681B68FA681343FB607B698F
:1047AC0023F400737B613B689B681B027A6913439B
:1047BC007B617B681D4A93420DD17B6923F40063B6
:1047CC007B613B68DB681B027A6913437B617B6905
:1047DC0023F480637B617B68144A934213D13B6959
:1047EC0023F480533B613B6923F400533B613B68EA
:1047FC005B691B013A6913433B613B689B691B0175
:10480C003A6913433B617B683A695A607B68FA6882
:10481C00DA613B685A687B68DA637B687A691A628A
:10482C0000BF1C37BD4680BC704700BF002C014048
:10483C0080B487B000AF786039607B681B6A23F462
:10484C0080527B681A627B681B6A3B617B685B6881
:10485C007B617B68DB69FB60FB6823F4E043FB60F6
:10486C00FB6823F44073FB603B681B681B02FA680F
:10487C001343FB603B6923F400533B613B689B682B
:10488C001B033A6913433B617B680F4A934209D17E
:10489C007B6923F480437B613B685B699B017A698C
:1048AC0013437B617B687A695A607B68FA68DA61CA
:1048BC003B685A687B681A647B683A691A6200BF65
:1048CC001C37BD4680BC7047002C014080B487B0BB
:1048DC0000AFF860B9607A60FB681B6A7B61FB68AB
:1048EC001B6A23F00102FB681A62FB689B693B613F
:1048FC003B6923F0F0033B617B681B013A6913436E
:10490C003B617B6923F00A037B617A69BB681343C3
:10491C007B61FB683A699A61FB687A691A6200BF2D
:10492C001C37BD4680BC704780B487B000AFF860C0
:10493C00B9607A60FB681B6A23F01002FB681A628C
:10494C00FB689B697B61FB681B6A3B617B6923F499
:10495C0070437B617B681B037A6913437B613B6902
:10496C0023F0A0033B61BB681B013A6913433B6115
:10497C00FB687A699A61FB683A691A6200BF1C3756
:10498C00BD4680BC704780B485B000AF786039609C
:10499C007B689B68FB60FB6823F07003FB603A68E4
:1049AC00FB68134343F00703FB607B68FA689A606B
:1049BC0000BF1437BD4680BC704780B487B000AFD1
:1049CC00F860B9607A603B60FB689B687B617B69CF
:1049DC0023F47F437B613B681A027B681A43BB68F4
:1049EC0013437A6913437B61FB687A699A6000BF51
:1049FC001C37BD4680BC704780B487B000AFF860F0
:104A0C00B9607A60BB6803F01F03012202FA03F35A
:104A1C007B61FB681A6A7B69DB431A40FB681A628C
:104A2C00FB681A6ABB6803F01F03796801FA03F389
:104A3C001A43FB681A6200BF1C37BD4680BC704726
:104A4C0080B485B000AF786039607B6893F83C30F7
:104A5C00012B01D1022346E07B68012283F83C2024
:104A6C007B68022283F83D207B681B685B68FB60D7
:104A7C007B681B689B68BB60FB6823F07003FB6062
:104A8C003B681B68FA681343FB607B681B68FA6819
:104A9C005A607B681B68164A93420ED07B681B6871
:104AAC00B3F1804F09D07B681B68124A934204D043
:104ABC007B681B68104A93420CD1BB6823F08003BF
:104ACC00BB603B685B68BA681343BB607B681B6860
:104ADC00BA689A607B68012283F83D207B680022CB
:104AEC0083F83C20002318461437BD4680BC704721
:104AFC00002C0140000400400008004080B483B04A
:104B0C0000AF786000BF0C37BD4680BC704780B4E6
:104B1C0083B000AF786000BF0C37BD4680BC7047D7
:104B2C0080B582B000AF78607B68002B01D1012387
:104B3C003FE07B6893F83D30DBB2002B06D17B68FD
:104B4C00002283F83C207868FCF790F97B682422DB
:104B5C0083F83D207B681B68DA687B681B6822F44D
:104B6C000052DA60786800F08FFC7B681B681A6969
:104B7C007B681B6822F490421A617B681B685A6937
:104B8C007B681B6822F02A025A617B681B68DA6812
:104B9C007B681B6842F40052DA607B6800221A645E
:104BAC007B68202283F83D207B68202283F83E20FE
:104BBC00002318460837BD4680BD80B58AB002AFC9
:104BCC00F860B9603B601346FB8000237B61FB6897
:104BDC0093F83D30DBB2202B7CD1BB68002B02D08C
:104BEC00FB88002B01D1012375E0FB6893F83C3066
:104BFC00012B01D102236EE0FB68012283F83C20DB
:104C0C00FB6800221A64FB68212283F83D20FCF724
:104C1C002FFF7861FB68FA889A84FB68FA88DA843B
:104C2C00FB689B68B3F5805F08D1FB681B69002BA0
:104C3C0004D10023FB61BB68BB6103E0BB68FB6173
:104C4C000023BB61FB68002283F83C202AE03B6810
:104C5C0000937B6900228021F86800F041FA03463A
:104C6C00002B01D0032336E0FB69002B0BD1BB6971
:104C7C001B881A46FB681B68C2F308025A60BB69A2
:104C8C000233BB6107E0FB691A78FB681B685A604A
:104C9C00FB690133FB61FB68DB8C9BB2013B9AB275
:104CAC00FB68DA84FB68DB8C9BB2002BCFD13B68B2
:104CBC0000937B6900224021F86800F011FA03464A
:104CCC00002B01D0032306E0FB68202283F83D2053
:104CDC00002300E0022318462037BD4680BD80B576
:104CEC0084B000AFF860B9601346FB80FB6893F8A2
:104CFC003E30DBB2202B1DD1BB68002B02D0FB88D1
:104D0C00002B01D1012316E0FB6893F83C30012BFA
:104D1C0001D102230FE0FB68012283F83C20FB68E1
:104D2C0000221A63FB881A46B968F86800F022FA68
:104D3C00034600E0022318461037BD4680BD000034
:104D4C0080B58AB000AF78607B681B681B687B629B
:104D5C007B681B68DB683B627B681B685B69FB617B
:104D6C000023BB6100237B617B6A03F00F03BB61F3
:104D7C00BB69002B0DD17B6A03F02003002B08D0FC
:104D8C003B6A03F02003002B03D0786800F0D2FAC2
:104D9C007BE1BB69002B00F0B180FB6903F00103E0
:104DAC00002B05D13B6A03F49073002B00F0A68016
:104DBC007B6A03F00103002B0AD03B6A03F4807377
:104DCC00002B05D07B681B6C43F001027B681A64D6
:104DDC007B6A03F00403002B0AD0FB6903F0010388
:104DEC00002B05D07B681B6C43F002027B681A64B5
:104DFC007B6A03F00203002B0AD0FB6903F001036A
:104E0C00002B05D07B681B6C43F004027B681A6492
:104E1C007B6A03F00803002B0FD03B6A03F02003DE
:104E2C00002B04D1FB6903F00103002B05D07B6838
:104E3C001B6C43F008027B681A647B681B6C002BAC
:104E4C0000F01E817B6A03F02003002B07D03B6A25
:104E5C0003F02003002B02D0786800F06BFA7B681B
:104E6C001B685B6903F04003002B14BF0123002374
:104E7C00DBB27B617B681B6C03F00803002B02D157
:104E8C007B69002B31D0786800F0ADF97B681B682A
:104E9C005B6903F04003002B23D07B681B685A69C5
:104EAC007B681B6822F040025A617B689B6B002B6D
:104EBC0013D07B689B6B764A5A637B689B6B184656
:104ECC00FCF77EFF0346002B16D07B689B6B5B6B5D
:104EDC007A68926B104698470EE0786800F0ECF810
:104EEC000AE0786800F0E8F806E0786800F0E4F88A
:104EFC007B6800221A64C3E000BFC1E07B681B6BB7
:104F0C00012B40F0A1807B6A03F01003002B00F012
:104F1C009B803B6A03F01003002B00F0958000236C
:104F2C00FB607B681B681B68FB607B681B685B68AD
:104F3C00FB60FB687B681B685B6903F04003002B1C
:104F4C004ED07B689B6B1B685B683B823B8A002B5B
:104F5C0000F098807B689B8D3A8A9A4280F0928010
:104F6C007B683A8ADA857B689B6B9B69202B2BD0FC
:104F7C007B681B68DA687B681B6822F48072DA60D5
:104F8C007B681B685A697B681B6822F001025A61B6
:104F9C007B681B685A697B681B6822F040025A6167
:104FAC007B68202283F83E207B6800221A637B6892
:104FBC001B68DA687B681B6822F01002DA607B6879
:104FCC009B6B1846FCF7C1FE7B689A8D7B68DB8D6A
:104FDC009BB2D31A9BB21946786800F076F851E070
:104FEC007B689A8D7B68DB8D9BB2D31A7B827B6846
:104FFC00DB8D9BB2002B47D07B8A002B44D07B6887
:10500C001B68DA687B681B6822F49072DA607B6834
:10501C001B685A697B681B6822F001025A617B6825
:10502C00202283F83E207B6800221A637B681B6871
:10503C00DA687B681B6822F01002DA607B8A1946FA
:10504C00786800F042F81FE07B6A03F08003002BC5
:10505C0008D03B6A03F08003002B03D0786800F083
:10506C0002F912E07B6A03F04003002B0DD03B6A7F
:10507C0003F04003002B08D0786800F043F904E0FB
:10508C0000BF02E000BF00E000BF2837BD4680BD76
:10509C004B52000880B483B000AF786000BF0C376F
:1050AC00BD4680BC704780B483B000AF786000BF51
:1050BC000C37BD4680BC704780B483B000AF7860BD
:1050CC0000BF0C37BD4680BC704780B483B000AFC6
:1050DC0078600B467B8000BF0C37BD4680BC7047A8
:1050EC0080B584B000AFF860B9603B601346FB71CB
:1050FC002CE0BB69B3F1FF3F28D0BB69002B07D074
:10510C00FCF7B6FC02463B68D31ABA699A421DD228
:10511C00FB681B68DA68FB681B6822F4D072DA60E3
:10512C00FB681B685A69FB681B6822F001025A6114
:10513C00FB68202283F83D20FB68202283F83E2068
:10514C00FB68002283F83C2003230FE0FB681B68FC
:10515C001A68BB681340BA689A420CBF012300233B
:10516C00DBB21A46FB799A42C3D00023184610379B
:10517C00BD4680BD80B485B000AFF860B960134601
:10518C00FB80FB68BA689A62FB68FA889A85FB68B0
:10519C00FA88DA85FB6800221A64FB68222283F8FD
:1051AC003E20FB68002283F83C20FB681B68DA6811
:1051BC00FB681B6842F48072DA60FB681B685A69F2
:1051CC00FB681B6842F001025A61FB681B68DA68D5
:1051DC00FB681B6842F02002DA6000231846143783
:1051EC00BD4680BC704780B483B000AF78607B68EC
:1051FC001B68DA687B681B6822F49072DA607B6843
:10520C001B685A697B681B6822F001025A617B6833
:10521C001B6B012B07D17B681B68DA687B681B68EA
:10522C0022F01002DA607B68202283F83E207B6833
:10523C0000221A6300BF0C37BD4680BC704780B596
:10524C0084B000AF78607B685B6AFB60FB6800220F
:10525C00DA85FB680022DA84F868FFF72DFF00BFBF
:10526C001037BD4680BD80B485B000AF78607B68D8
:10527C0093F83D30DBB2212B3ED17B689B68B3F5B4
:10528C00805F14D17B681B69002B10D17B681B6A73
:10529C00FB60FB681B881A467B681B68C2F308021C
:1052AC005A607B681B6A9A1C7B681A6208E07B68F0
:1052BC001B6A591C7A6811621A787B681B685A60E1
:1052CC007B68DB8C9BB2013B9BB27A681946D1841C
:1052DC00002B0FD17B681B68DA687B681B6822F097
:1052EC008002DA607B681B68DA687B681B6842F0B6
:1052FC004002DA60002300E0022318461437BD4652
:10530C0080BC704780B582B000AF78607B681B684A
:10531C00DA687B681B6822F04002DA607B68202226
:10532C0083F83D207868FFF7B5FE00231846083750
:10533C00BD4680BD80B586B000AF78607B6893F8C1
:10534C003E30DBB2222B40F099807B689B68B3F532
:10535C00805F17D17B681B69002B13D100237B6105
:10536C007B689B6A3B617B681B685B689BB2C3F381
:10537C0008039AB23B691A807B689B6A9A1C7B680B
:10538C009A6226E07B689B6A7B6100233B617B68A9
:10539C009B68B3F5805F07D07B689B68002B0AD1B4
:1053AC007B681B69002B06D17B681B685B68DAB2D3
:1053BC007B691A7008E07B681B685B68DBB203F0E2
:1053CC007F03DAB27B691A707B689B6A5A1C7B6814
:1053DC009A627B68DB8D9BB2013B9BB27A68194663
:1053EC00D185002B48D17B681B68DA687B681B6809
:1053FC0022F02002DA607B681B68DA687B681B6825
:10540C0022F48072DA607B681B685A697B681B68BF
:10541C0022F001025A617B68202283F83E207B68CF
:10542C001B6B012B23D17B6800221A637B681B68E2
:10543C00DA687B681B6822F01002DA607B681B68F4
:10544C001B6803F01003102B0AD10023FB607B6850
:10545C001B681B68FB607B681B685B68FB60FB68F8
:10546C007B689B8D19467868FFF72FFE02E0786801
:10547C00FFF719FE002302E0002300E00223184688
:10548C001837BD4680BD000080B584B000AF786091
:10549C007B681B681B6923F440517B68DA687B6866
:1054AC001B680A431A617B689A687B681B691A43FC
:1054BC007B685B691343BB607B681B68DB6823F408
:1054CC00B05323F00C037A681268B9680B43D360AD
:1054DC007B681B685B6923F440717B689A697B6805
:1054EC001B680A435A617B681B682C4A934203D1A0
:1054FC00FDF764FBF86002E0FDF74CFBF860FA681E
:10550C0013469B0013449A001A447B685B689B000B
:10551C00B2FBF3F3224AA2FB03235B091901FA68DD
:10552C0013469B0013449A001A447B685B689B00EB
:10553C00B2FBF3F21A4BA3FB02035B09642000FBE2
:10554C0003F3D31A1B013233154AA2FB03235B0965
:10555C0003F0F0031944FA6813469B0013449A00B5
:10556C001A447B685B689B00B2FBF3F20C4BA3FB09
:10557C0002035B09642000FB03F3D31A1B013233D3
:10558C00074AA2FB03235B0903F00F027B681B682D
:10559C000A449A6000BF1037BD4680BD00380140F8
:1055AC001F85EB5180B582B000AF0346FB804FF4F2
:1055BC0080511548FCF7BAFE0346002B1FD1134B44
:1055CC001B78002B0BD0124B1B78002B07D0114BE8
:1055DC001B68114A13600D4B00221A7006E00C4B2D
:1055EC001B78002B02D00C4B0C4A1A600A4B196822
:1055FC000B4B1A684FF484730A48FDF7ADFF00BFDC
:10560C000837BD4680BD00BF000C01409904002046
:10561C009A040020C4080020BC080020C808002000
:10562C00C0080020F800002080B485B000AF78607E
:10563C000B46FB700023FB6007E0FB687A681344A1
:10564C00FA781A70FB680133FB60FB68B3F5847F52
:10565C00F3DB00BF00BF1437BD4680BC70470000B1
:10566C0080B500AF074B00221A70064B1B7818460A
:10567C0000F050F8AA210448FFF7D6FF00F012F80A
:10568C0000BF80BD9A040020AC06002080B500AF9E
:10569C00FFF7E6FF024B00221A7000BF80BD00BF6F
:1056AC009904002080B582B000AF194BFA221A7011
:1056BC00174BAF225A70164B03229A70144BFF22D1
:1056CC0083F80221124B0D2283F803214FF48271CF
:1056DC000F4800F06DFC78607B681B0EDAB20C4B47
:1056EC0083F804217B681B0CDAB2094B83F8052183
:1056FC007B681B0ADAB2064B83F806217B68DAB2A8
:10570C00034B83F8072100BF0837BD4680BD00BF9F
:10571C00C808002080B483B000AF0346FB71FB794E
:10572C00002B03D0074B084A1A6005E0074B084AC8
:10573C001A60044B074A1A6000BF0C37BD4680BC88
:10574C00704700BFC0080020B4070020BC08002030
:10575C00AC0600209C04002080B582B000AF7860BD
:10576C007B681B68114A93421BD1114B1B78002B91
:10577C0003D00F4B00221A700EE00D4B01221A7051
:10578C000C4A0D4B104619464FF484731A4600F020
:10579C00ABFD0A4B01221A70054B1B781846FFF71C
:1057AC00B9FF00BF0837BD4680BD00BF00380040C0
:1057BC009A040020A40500209C04002098040020DA
:1057CC0080B400AF024B1B781846BD4680BC7047B6
:1057DC00D80A002080B483B000AF0346FB71044AA2
:1057EC00FB79137000BF0C37BD4680BC704700BFFF
:1057FC00D80A002080B483B000AF0346FB71044A82
:10580C00FB79137000BF0C37BD4680BC704700BFDE
:10581C00D90A002080B400AF274B1B68274A128896
:10582C0092B293420BD0254B1B889BB2002B0AD112
:10583C00234B1B7883F00103DBB2002B03D01E4BF0
:10584C0000221A7134E01C4B1B68B3F1FF3F0FD1DF
:10585C00194B1B680133194A128892B2934203DA2E
:10586C00154BFC221A7123E0134B00221A711FE016
:10587C00124B1B889BB21A460F4B1B689A4207DAD5
:10588C000F4B1B78002B03D00B4BFC221A710FE033
:10589C00094B1A68094B1B889BB2013B9A4203DAED
:1058AC00054BFC221A7103E0034B00221A7100BF56
:1058BC00BD4680BC704700BF0C00002026020020B3
:1058CC002C03002080B582B000AF4FF4847200210D
:1058DC001F4800F017FD1E4BFA221A701C4BAA220F
:1058EC005A7000F03DF8FFF795FF1A4B1A79184BD8
:1058FC009A70174BFF2283F80221154B0B2283F869
:10590C0003214FF48271124800F052FB78607B68DF
:10591C001B0EDAB20E4B83F804217B681B0CDAB237
:10592C000B4B83F805217B681B0ADAB2084B83F812
:10593C0006217B68DAB2064B83F80721064B044A32
:10594C001A60064B01221A7000BF0837BD4680BD95
:10595C00D00900200C000020C4080020990400206D
:10596C0080B582B000AF2C4B1B79002B50D02A4B4A
:10597C001B68B3F1FF3F12D1274B00221A600022A3
:10598C004FF400412548FCF7E8FC234B1B681946F3
:10599C00234B1B8800222348FBF7B2FE13E01E4B5F
:1059AC001B6801331C4A136000224FF400411B4852
:1059BC00FCF7D3FC184B1B681946194B1B880022AB
:1059CC001848FBF79DFE0323FB800023BB800BE0F4
:1059DC00BA88FB881349895C134AD154BB880133BC
:1059EC00BB80FB880133FB80BB88FB2BF0D90A4BB7
:1059FC001B684FF6FE7293420BD1074B4FF0FF32F0
:105A0C001A600A4B00221A70094B01221A7000E02E
:105A1C0000BF0837BD4680BD0C00002000080140C7
:105A2C00440400202C020020D00900202C0300206C
:105A3C002D03002080B584B000AF03460A46FB80DE
:105A4C001346BB804FF484720021214800F05AFCAD
:105A5C001F4BFA221A701E4BAF225A70FB88DAB217
:105A6C001B4B9A70BB88A22B03D11A4B1A79184B7B
:105A7C00DA70174BFF2283F80221154B0D2283F8A5
:105A8C0003214FF48271124800F092FAF860FB681F
:105A9C001B0EDAB20E4B83F80421FB681B0CDAB236
:105AAC000B4B83F80521FB681B0ADAB2084B83F811
:105ABC000621FB68DAB2064B83F80721064B044A31
:105ACC001A60064B01221A7000BF1037BD4680BD0C
